{
  "contractName": "Election",
  "abi": [
    {
      "inputs": [
        {
          "internalType": "string",
          "name": "_CandidateOne",
          "type": "string"
        },
        {
          "internalType": "string",
          "name": "_CandidateTwo",
          "type": "string"
        }
      ],
      "stateMutability": "nonpayable",
      "type": "constructor"
    },
    {
      "inputs": [],
      "name": "CandidateOne",
      "outputs": [
        {
          "internalType": "string",
          "name": "",
          "type": "string"
        }
      ],
      "stateMutability": "view",
      "type": "function",
      "constant": true
    },
    {
      "inputs": [],
      "name": "CandidateOneCount",
      "outputs": [
        {
          "internalType": "uint256",
          "name": "",
          "type": "uint256"
        }
      ],
      "stateMutability": "view",
      "type": "function",
      "constant": true
    },
    {
      "inputs": [],
      "name": "CandidateTwo",
      "outputs": [
        {
          "internalType": "string",
          "name": "",
          "type": "string"
        }
      ],
      "stateMutability": "view",
      "type": "function",
      "constant": true
    },
    {
      "inputs": [],
      "name": "CandidateTwoCount",
      "outputs": [
        {
          "internalType": "uint256",
          "name": "",
          "type": "uint256"
        }
      ],
      "stateMutability": "view",
      "type": "function",
      "constant": true
    },
    {
      "inputs": [],
      "name": "VoteCandidateOne",
      "outputs": [],
      "stateMutability": "nonpayable",
      "type": "function"
    },
    {
      "inputs": [],
      "name": "VoteCandidateTwo",
      "outputs": [],
      "stateMutability": "nonpayable",
      "type": "function"
    }
  ],
  "bytecode": "0x60806040523480156200001157600080fd5b5060405162000c4038038062000c408339818101604052810190620000379190620001f6565b8160029081620000489190620004c6565b5080600390816200005a9190620004c6565b505050620005ad565b6000604051905090565b600080fd5b600080fd5b600080fd5b600080fd5b6000601f19601f8301169050919050565b7f4e487b7100000000000000000000000000000000000000000000000000000000600052604160045260246000fd5b620000cc8262000081565b810181811067ffffffffffffffff82111715620000ee57620000ed62000092565b5b80604052505050565b60006200010362000063565b9050620001118282620000c1565b919050565b600067ffffffffffffffff82111562000134576200013362000092565b5b6200013f8262000081565b9050602081019050919050565b60005b838110156200016c5780820151818401526020810190506200014f565b60008484015250505050565b60006200018f620001898462000116565b620000f7565b905082815260208101848484011115620001ae57620001ad6200007c565b5b620001bb8482856200014c565b509392505050565b600082601f830112620001db57620001da62000077565b5b8151620001ed84826020860162000178565b91505092915050565b6000806040838503121562000210576200020f6200006d565b5b600083015167ffffffffffffffff81111562000231576200023062000072565b5b6200023f85828601620001c3565b925050602083015167ffffffffffffffff81111562000263576200026262000072565b5b6200027185828601620001c3565b9150509250929050565b600081519050919050565b7f4e487b7100000000000000000000000000000000000000000000000000000000600052602260045260246000fd5b60006002820490506001821680620002ce57607f821691505b602082108103620002e457620002e362000286565b5b50919050565b60008190508160005260206000209050919050565b60006020601f8301049050919050565b600082821b905092915050565b6000600883026200034e7fffffffffffffffffffffffffffffffffffffffffffffffffffffffffffffffff826200030f565b6200035a86836200030f565b95508019841693508086168417925050509392505050565b6000819050919050565b6000819050919050565b6000620003a7620003a16200039b8462000372565b6200037c565b62000372565b9050919050565b6000819050919050565b620003c38362000386565b620003db620003d282620003ae565b8484546200031c565b825550505050565b600090565b620003f2620003e3565b620003ff818484620003b8565b505050565b5b8181101562000427576200041b600082620003e8565b60018101905062000405565b5050565b601f82111562000476576200044081620002ea565b6200044b84620002ff565b810160208510156200045b578190505b620004736200046a85620002ff565b83018262000404565b50505b505050565b600082821c905092915050565b60006200049b600019846008026200047b565b1980831691505092915050565b6000620004b6838362000488565b9150826002028217905092915050565b620004d1826200027b565b67ffffffffffffffff811115620004ed57620004ec62000092565b5b620004f98254620002b5565b620005068282856200042b565b600060209050601f8311600181146200053e576000841562000529578287015190505b620005358582620004a8565b865550620005a5565b601f1984166200054e86620002ea565b60005b82811015620005785784890151825560018201915060208501945060208101905062000551565b8683101562000598578489015162000594601f89168262000488565b8355505b6001600288020188555050505b505050505050565b61068380620005bd6000396000f3fe608060405234801561001057600080fd5b50600436106100625760003560e01c80633274260c146100675780633cdf11c8146100855780639c3a41d61461008f578063ab69c4b0146100ad578063c3d748ff146100b7578063d7b0fe61146100d5575b600080fd5b61006f6100f3565b60405161007c919061043d565b60405180910390f35b61008d6100f9565b005b6100976101fe565b6040516100a4919061043d565b60405180910390f35b6100b5610204565b005b6100bf610308565b6040516100cc91906104e8565b60405180910390f35b6100dd610396565b6040516100ea91906104e8565b60405180910390f35b60015481565b60001515600460003373ffffffffffffffffffffffffffffffffffffffff1673ffffffffffffffffffffffffffffffffffffffff16815260200190815260200160002060009054906101000a900460ff1615151461018c576040517f08c379a000000000000000000000000000000000000000000000000000000000815260040161018390610556565b60405180910390fd5b6001600460003373ffffffffffffffffffffffffffffffffffffffff1673ffffffffffffffffffffffffffffffffffffffff16815260200190815260200160002060006101000a81548160ff021916908315150217905550600160008154809291906101f7906105a5565b9190505550565b60005481565b60001515600460003373ffffffffffffffffffffffffffffffffffffffff1673ffffffffffffffffffffffffffffffffffffffff16815260200190815260200160002060009054906101000a900460ff16151514610297576040517f08c379a000000000000000000000000000000000000000000000000000000000815260040161028e90610556565b60405180910390fd5b6001600460003373ffffffffffffffffffffffffffffffffffffffff1673ffffffffffffffffffffffffffffffffffffffff16815260200190815260200160002060006101000a81548160ff021916908315150217905550600080815480929190610301906105a5565b9190505550565b600380546103159061061c565b80601f01602080910402602001604051908101604052809291908181526020018280546103419061061c565b801561038e5780601f106103635761010080835404028352916020019161038e565b820191906000526020600020905b81548152906001019060200180831161037157829003601f168201915b505050505081565b600280546103a39061061c565b80601f01602080910402602001604051908101604052809291908181526020018280546103cf9061061c565b801561041c5780601f106103f15761010080835404028352916020019161041c565b820191906000526020600020905b8154815290600101906020018083116103ff57829003601f168201915b505050505081565b6000819050919050565b61043781610424565b82525050565b6000602082019050610452600083018461042e565b92915050565b600081519050919050565b600082825260208201905092915050565b60005b83811015610492578082015181840152602081019050610477565b60008484015250505050565b6000601f19601f8301169050919050565b60006104ba82610458565b6104c48185610463565b93506104d4818560208601610474565b6104dd8161049e565b840191505092915050565b6000602082019050818103600083015261050281846104af565b905092915050565b7f796f7520616c726561647920766f746564210000000000000000000000000000600082015250565b6000610540601283610463565b915061054b8261050a565b602082019050919050565b6000602082019050818103600083015261056f81610533565b9050919050565b7f4e487b7100000000000000000000000000000000000000000000000000000000600052601160045260246000fd5b60006105b082610424565b91507fffffffffffffffffffffffffffffffffffffffffffffffffffffffffffffffff82036105e2576105e1610576565b5b600182019050919050565b7f4e487b7100000000000000000000000000000000000000000000000000000000600052602260045260246000fd5b6000600282049050600182168061063457607f821691505b602082108103610647576106466105ed565b5b5091905056fea26469706673582212208a11fe040d4cf0639d2bb46c31f105f80ee0d310423a7bb12fa7915b1644eb3664736f6c63430008110033",
  "immutableReferences": {},
  "source": "// SPDX-License-Identifier: MIT\r\npragma solidity ^0.8.0;\r\n\r\ncontract Election{\r\n    uint public CandidateOneCount;\r\n    uint public CandidateTwoCount;\r\n    string public CandidateOne;\r\n    string public CandidateTwo;\r\n\r\n   constructor(string memory _CandidateOne, string memory _CandidateTwo){\r\n       CandidateOne = _CandidateOne;\r\n       CandidateTwo = _CandidateTwo;\r\n   }\r\n\r\n   mapping(address => bool) YourVote;\r\n\r\n   modifier onlySatisfy{\r\n       require(YourVote[msg.sender] == false,\"you already voted!\");\r\n       _;\r\n   }\r\n    \r\n    function VoteCandidateOne()public onlySatisfy{\r\n        YourVote[msg.sender] = true;\r\n        CandidateOneCount++;\r\n    }\r\n\r\n    function VoteCandidateTwo()public onlySatisfy{\r\n        YourVote[msg.sender] = true;\r\n        CandidateTwoCount++;\r\n    }\r\n\r\n}",
  "sourcePath": "C:\\Users\\User\\desktop\\votingDapp\\ElectionDapp\\src\\contracts\\Election.sol",
  "compiler": {
    "name": "solc",
    "version": "0.8.17+commit.8df45f5f.Emscripten.clang"
  },
  "schemaVersion": "3.4.10",
  "updatedAt": "2022-11-15T09:32:01.209Z",
  "networkType": "ethereum",
  "devdoc": {
    "kind": "dev",
    "methods": {},
    "version": 1
  },
  "userdoc": {
    "kind": "user",
    "methods": {},
    "version": 1
  }
}